:03000000020118E2
:0C011800787FE4F6D8FD75810802000332
:0C005C00C2A5C2A78980D2A77F057E0044
:10006800D3EF9400EE9400400F7DC77C01DCFEDDE9
:08007800FAEF1F70EB1E80E897
:01008000225D
:10008100E4FBC2A6D2A5D2A77F01FE120068E580DB
:1000910030E70C0BEBD3946440F4C2A77F0022C27B
:0300A100A77F0135
:0100A4002239
:0200A500A907A9
:1000A700E4FA120081EF700E7F01FE1200680AEA7F
:0D00B700D3946440ED22C2A612005CC2A7E3
:0100C4002219
:0200C500A90789
:1000C700E4FA120081EF700E7F01FE1200680AEA5F
:0D00D700D3946440ED22D2A612005CC2A7B3
:0100E40022F9
:10010500D2B2D2B47F301200A57F0C1200A57F01B8
:030115000200A540
:1000E500EF70047F808013BF01047F90800CBF02F6
:1000F500047F888005BF03027F98EF2DFF0200A5CE
:10003500C6D5D6D0BFC6BCBCD3D0CFDEB9ABCBBE40
:10004500BBB6D3ADC0B4B5BDB5A5C6ACBBFAB5C4DA
:07005500CAC0BDE7A3A10032
:10000300120105E4FDFF8023E50890003593FF60AE
:100013001F1200C50508E508B41007E4FD7F0212AE
:1000230000E5E508B420E1E4FD7F031200E580D894
:0200330080FE4D
:00000001FF
