:0300000002000EED
:0C000E00787FE4F6D8FD75811F020055D4
:0A0276003F065B4F666D7D077F6F4A
:100223000108001009003F003F003F003F003F006E
:050233003F003F003F09
:10012000120200120258120242E519540F90027690
:1001300093751700F518E519C4540F93751500F55C
:1001400016751300751440E51A540F93751100F5D8
:1001500012E51AC4540F93750F00F510750D007554
:100160000E40E51B540F93750B00F50CE51BC454B2
:090170000F93750900F50A80AD3A
:10025800758902758C9C758A9CD2A9D2AFD28C22E2
:03000B0002009A56
:10009A00C0E0C083C082C0D075D000C000758000A7
:1000AA00E508B40800504D9000B8F82828730200FB
:1000BA00F80200F40200EC0200E80200E00200DCB0
:1000CA000200D40200D0C2A28002D2A2C2A3C2A459
:1000DA008022C2A28002D2A2D2A3C2A48016C2A245
:1000EA008002D2A2C2A3D2A4800AC2A28002D2A251
:1000FA00D2A3D2A4E50825E02409F808E6F580058C
:10010A0008E508D394074003750800D000D0D0D082
:06011A0082D083D0E03228
:0E02680081838587898B8D80828486888A8C2D
:0902380007190000120101021374
:1001C700C2AFC2B500C2B600D2B500E4FEEF1392CB
:1001D700B4EFC313FFD2B600C2B6000EBE08EEE4FA
:1001E700FEED1392B4EDC313FDD2B600C2B6000EF6
:0801F700BE08EEC2B500D2AF54
:0101FF0022DD
:10017900C2AFC2B500C2B600D2B500E4FDEF13921A
:10018900B4EFC313FFD2B600C2B6000DBD08EE002E
:10019900E4FDA2B4E433FFC43333335480FCEEC32B
:1001A900134CFED2B600C2B6000DBD08E5C2B500BB
:0D01B900D2B600C2B400D2B400D2AFAF067F
:0101C6002216
:10020000E4FD7F8E1201C7E4FCEC90026F93FF7453
:10021000192CF8E6FD1201C70CBC07ED7D807F8E1E
:030220000201C711
:10024200E4FBEB90026893FF12017974192BF8A674
:05025200070BBB07EDE6
:010257002284
:10001A00020120E493A3F8E493A34003F68001F2DB
:10002A0008DFF48029E493A3F85407240CC8C333E7
:10003A00C4540F4420C8834004F456800146F6DFB6
:10004A00E4800B0102040810204080900223E47E21
:10005A00019360BCA3FF543F30E509541FFEE493AB
:10006A00A360010ECF54C025E060A840B8E493A372
:10007A00FAE493A3F8E493A3C8C582C8CAC583CA9D
:10008A00F0A3C8C582C8CAC583CADFE9DEE780BE55
:0102410000BC
:00000001FF
