:0C0BBE00EF4E6007EF1F70F81E80F5225C
:100B8800120AEB7FD0120BE67F07120BE6E4FF1286
:050B98000BE6020B6AF0
:060BE600120B4B020B9DF7
:030BF100020A20D5
:100A7C008F198D1A8B1B120AEB7FD0120BE6E4FF39
:100A8C00120BE6AF1B120BE6AF1A120BE6AF1912E4
:050A9C000BE6020B6AED
:100AA1008F1C8D1D8B1E120AEB7FD0120BE67F046B
:100AB100120BE6AF1C120BE6AF1D120BE6AF1E12B6
:050AC1000BE6020B6AC8
:100873008B0E8A0F8910120AEB7FD0120BE6E4FF6E
:10088300120BE6120B6A120AEB7FD1120BE6120B64
:10089300F1AB14AA15A916EF120A6A120BD6120BA2
:1008A300F1AB11AA12A913EF120A6A120BD6120B9B
:1008B300F1AB0EAA0FA910EF120A6A120BDE020B9C
:0108C3006ACA
:1008C4008B0E8A0F8910120AEB7FD0120BE67F047D
:1008D400120BE6120B6A120AEB7FD1120BE6120B13
:1008E400F1AB0EAA0FA910EF120A6A120BD6120B63
:1008F400F1AB11AA12A913EF120A6A120BD6120B4A
:10090400F1AB14AA15A916EF120A6A120BDE020B38
:010914006A78
:100B9D007F197E00120BBED2807FC87E00120BBE65
:030BAD00C28022E1
:100AEB00C280D2817FC87E00120BBED2807FC87EAF
:100AFB0000120BBEC2817FC87E00120BBEC28022C9
:100B6A00C2807FC87E00120BBEC2817FC87E00127F
:0E0B7A000BBED2807FC87E00120BBED281223D
:020B4B008F1702
:100B4D00E4F518E517339281120B9DE51725E0F5B5
:0C0B5D00170518E518C3940840E9D28180
:010B69002269
:100A2000E4F518D281F5177FC87E00120BBED28084
:100A30007FC87E00120BBEE51825E0F518A281E400
:100A4000334218C2800517E517C3940840D9AF1880
:010A50002283
:080BD600C281120B9DD28122A5
:080BDE00D281120B9DD280228E
:100B0B007F887E13120BBE7F021209E57F28120924
:100B1B00E57F0C1209E57F011209E57F800209E5EB
:1009E5008F0EE50E54F0F590C290C291D2927F0120
:1009F5007E00120BBEC2927F017E00120BBEE50E79
:100A0500C454F0F590C290C291D2927F017E00123B
:0B0A15000BBEC2927F017E00020BBEF0
:0509A500540F2430FF97
:1009AA008F11E51154F0F590D290C291D2927F0145
:1009BA007E00120BBEC2927F017E00120BBEE511B1
:1009CA00C454F0F590D290C291D2927F017E001267
:0B09DA000BBEC2927F017E00020BBE2C
:050BEC007FC00209E5D5
:100B2B00C3EF648094825017EFC4333354C04480B6
:0F0B3B00FFC3ED648094905003ED2FFF1209E586
:010B4A002288
:100AC6008B0E8A0F8910AB0EAA0FA910120A51605D
:100AD600130510E5107002050F14F9120A51FF12E2
:050AE60009AA80E222D4
:100915008F0E8D0F8B107804E50EA2E713D8FB120E
:1009250009A5E50E1209A57F3A1209AA7804E50F73
:10093500A2E713D8FB1209A5E50F1209A57F3A1204
:1009450009AA7804E510A2E713D8FB1209A5E5105A
:08095500540F2430FF0209AA2F
:10095D008F0E8D0F8B107804E50EA2E713D8FB12C6
:10096D0009A5E50E1209A57F2F1209AA7804E50F36
:10097D00A2E713D8FB1209A5E50F1209A57F2F12C7
:10098D0009AA7804E510A2E713D8FB1209A5E51012
:08099D00540F2430FF0209AAE7
:0E0BB00054696D653A2000446174653A200076
:10080000120B0B120B887BFF7A0B79B0120AC612FF
:100810000BEC7BFF7A0B79B7120AC67511007512C3
:10082000007513097514007515007516087B007A9C
:1008300000790A1208737D06E4FF120B2BAB08AD9A
:1008400009AF0A12091575110075120075130C75A0
:10085000140075150075160D7B007A00790B1208CF
:10086000C47D067F01120B2BAB0DAD0CAF0B120933
:030870005D80A800
:03000000020BCA26
:0C0BCA00787FE4F6D8FD75811E0208005B
:100A5100BB010689828A83E0225002E722BBFE02A3
:090A6100E32289828A83E49322D6
:100A6A00BB010689828A83F0225002F722BBFE016B
:020A7A00F32265
:00000001FF
