:0300000002037781
:0C037700787FE4F6D8FD7581310203BEEA
:0B0569003F065B4F666D7D077F6F77DC
:10053000081001010001010101000818010101007A
:10054000010101000820010101010000010108284A
:0805500001010101000100019D
:10048E007C007D0A12040374692DF58274053CF517
:10049E0083E493F5807F0A7E001204CA75A004AE31
:1004AE000EAF0F7C007D0A12040374692FF582745F
:0C04BE00053EF583E493F5807F0A7E0084
:1004CA00EF1FAC0670011E4C6012758901758DE82C
:0D04DA00758B90D28E308FFDC28F80E42292
:10000E00C2B6C2B5E4FBFA74102BF8E624FF92B424
:10001E007F017E001204CAD2B67F017E001204CA8E
:10002E00C2B60BBB00010AEB64084A70DAD2B57592
:10003E000E00750F0AE5096401450870030202B24D
:10004E00E4F50AF50B75A008AE0EAF0F7C007D0A25
:10005E0012040374692DF58274053C1204C0E4F594
:10006E00A0E50F24FDFFE50E34FFFE7C007D0A1295
:10007E00040374692DF58274053C1204C075A00C3E
:10008E001204AD75A004E50F24FDFFE50E34FFFE4E
:10009E001204B1050BE50B7002050AC3941EE50AA6
:1000AE0064809480409FE50F150F7002150EC3E516
:1000BE000F9403E50E648094804003020043C2B6A1
:1000CE00C2B5E4FAFB74182BF8E624FF92B47F0154
:1000DE007E001204CAD2B67F017E001204CAC2B6D6
:1000EE000BBB00010AEB64084A70DAD2B5750E003C
:1000FE00750F02E5096401450870030202B2E4F5CA
:10010E000AF50B75A008AE0EAF0F7C007D0A120427
:10011E000374692DF58274053C1204C0E4F5A0AE9B
:10012E000EAF0FFC7D0A12040374692DF58274055F
:10013E003C1204C075A00CAE0EAF0F7C007D0A12EF
:10014E00040374692FF58274053E12049D050BE5B8
:10015E000B7002050AC3941EE50A6480948040A3C6
:10016E00E50F150F7002150EC3E50E6480948050D6
:10017E0082C2B6C2B5E4FAFB74202BF8E624FF92D5
:10018E00B47F017E001204CAD2B67F017E00120433
:10019E00CAC2B60BBB00010AEB64084A70DAD2B5CC
:1001AE00750E00750F0AE509640145087003020219
:1001BE00B2E4F50AF50BE4F5A0AE0EAF0FFC7D0A26
:1001CE0012040374692DF58274053C1204C075A0E7
:1001DE0008E50F24FDFFE50E34FFFE12048E75A018
:1001EE000CE50F24FDFFE50E34FFFE1204B1050BE6
:1001FE00E50B7002050AC3941EE50A6480948040E4
:10020E00B5E50F150F7002150EC3E50F9403E50E3D
:10021E00648094805090C2B6C2B5E4FAFB74282B69
:10022E00F8E624FF92B47F017E001204CAD2B67F94
:10023E00017E001204CAC2B60BBB00010AEB6408B1
:10024E004A70DAD2B5750E00750F02E509640145E4
:10025E00086051E4F50AF50BE4F5A0AE0EAF0FFC05
:10026E007D0A12040374692DF58274053C1204C0D4
:10027E0075A008AE0EAF0F12048E75A00C1204AD51
:10028E00050BE50B7002050AC3941EE50A64809403
:10029E008040C5E50F150F7002150EC3E50E648084
:0402AE00948050A741
:0102B2002229
:10055900758901758CFC758A18D2A9D2AFD28C2203
:03000B000204E705
:1004E700C0E0C0D075D000C004C006C00730A92E38
:1004F70020B2257F647E001204CA30B2080509E5E0
:100507000970020508D3E5099401E5086480948021
:100517004006750800750900758CFC758A18D007A8
:09052700D006D004D0D0D0E0329F
:1002B300120559E50964014508600302036875A046
:1002C300FFF58020B3237F64FE1204CA30B3080510
:1002D3000DE50D7002050CD3E50D9401E50C64806A
:1002E30094804005E4F50CF50DE50D450C603CC22A
:1002F300B6C2B5E4F530F53174102531F8E624FFC4
:1003030092B47F017E001204CAD2B67F017E00122E
:1003130004CAC2B60531E53170020530C39408E55D
:10032300306480948040D1D2B5803AC2B6C2B5E47D
:10033300F530F53174202531F8E624FF92B47F01BE
:100343007E001204CAD2B67F017E001204CAC2B66E
:100353000531E53170020530C39408E530648094BB
:100363008040D1D2B5E509450860030202B6120008
:040373000E0202B6BE
:100383000202B3E493A3F8E493A34003F68001F2DB
:1003930008DFF48029E493A3F85407240CC8C3337B
:1003A300C4540F4420C8834004F456800146F6DF4A
:1003B300E4800B0102040810204080900530E47EA5
:1003C300019360BCA3FF543F30E509541FFEE4933F
:1003D300A360010ECF54C025E060A840B8E493A306
:1003E300FAE493A3F8E493A3C8C582C8CAC583CA31
:1003F300F0A3C8C582C8CAC583CADFE9DEE780BEE9
:0105580000A2
:10040300C2D5EC30E709B2D5E4C39DFDE49CFCEE14
:1004130030E715B2D5E4C39FFFE49EFE120439C34F
:10042300E49DFDE49CFC800312043930D507C3E44A
:060433009FFFE49EFE2283
:10043900BC000BBE0029EF8DF084FFADF022E4CCA7
:10044900F875F008EF2FFFEE33FEEC33FCEE9DEC70
:10045900984005FCEE9DFE0FD5F0E9E4CEFD22EDB6
:10046900F8F5F0EE8420D21CFEADF075F008EF2F00
:10047900FFED33FD4007985006D5F0F222C398FDF1
:050489000FD5F0EA228E
:00000001FF
