:0300000002026C8D
:0C026C00787FE4F6D8FD7581180202B31B
:100498003F065B4F666D7D077F6F7781822444003E
:0704A80010041410001404FD
:0C04BF00021300010217000102150000EA
:10041400AB08AA09A90A12010AF5A0AE11AF127C11
:10042400007D0A12013774982FF58274043EF58317
:08043400E493F5807F037E00D4
:10043C00EF1FAC0670011E4C6012758901758DE8BA
:0D044C00758B90D28E308FFDC28F80E42220
:060459009004A3E493FFF0
:02045F00AD07E7
:10046100C2B6C2B5E4FBFA7807EDA2E713D8FB24C4
:10047100FF92B4ED25E0FD7F017E0012043CD2B66F
:100481007F017E0012043CC2B60BBB00010AEB6483
:06049100084A70D3D2B549
:010497002242
:0C000E007BFF750D00750E037D0A7C0061
:06001A008B088A09890A27
:100020008C118D12C3E512950EE50D6480F8E51173
:1000300064809850030200F0E514640145137003D6
:100040000200F0E4F50FF510AB08AA09A90A1200A6
:10005000F1F5A0AE11AF127C007D0A120137749841
:100060002DF58274043C120432AB08AA09A90A9047
:10007000000112010AF5A0E51224FDFFE51134FF8D
:10008000FE7C007D0A12013774982DF58274043CC1
:10009000120432AB08AA09A90A90000212010AF55B
:1000A000A0AE11AF12120423AB08AA09A90A90004E
:1000B0000312010AF5A0E51224FDFFE51134FFFE4D
:1000C000120423E4F5807F03FE12043C0510E510C2
:1000D0007002050FC3943CE50F64809480500302C6
:1000E0000048E512151260030200241511020024D5
:0100F00022ED
:0601C2008B088A09890A7E
:1001C8008C118D12C3E512950EE50D6480F8E511CA
:1001D800648098500302026BE514640145137003B0
:1001E80002026BE4F50FF510AB08AA09A90A120080
:1001F800F1F5A0AE11AF127C007D0A120137749898
:100208002DF58274043C120432AB08AA09A90A909D
:10021800000112010AF5A0AE11AF127C007D0A128E
:10022800013774982DF58274043C12043290000250
:10023800120414900003120414E4F5807F03FE12E4
:10024800043C0510E5107002050FC3943CE50F64EB
:100258008094804093E512151260030201CC1511B9
:030268000201CCC4
:01026B002270
:10037D001204597A0479A712000E9004A4E493FF95
:10038D0012045F7BFF7A0479A7E4F50DF50E7D026B
:10039D00FC1201C29004A5E493FF12045F7A047964
:1003AD00AB12000E9004A6E493FF12045F7BFF7A5C
:0E03BD000479ABE4F50DF50E7D02FC0201C2E1
:1004AF00758901758CFC758A18D2A9D2AFD28C22AE
:03000B000203CB22
:1003CB00C0E0C0D075D000C004C006C00730A92E55
:1003DB0020B2257F647E0012043C30B2080514E580
:1003EB001470020513D3E5149401E5136480948013
:1003FB004006751300751400758CFC758A18D007B0
:09040B00D006D004D0D0D0E032BC
:1002F8001204AFE51445136076E4F58020B3237F3C
:1003080064FE12043C30B3080518E518700205179E
:10031800D3E5189401E517648094804005E4F51747
:10032800F518E51845176020E51645156010900486
:10033800A6E493FF12045F7FD07E0712043C1204E8
:1003480059E4F515F51680ABE5164515700F9004C0
:10035800A493FF12045F7FD07E0712043C9004A58B
:10036800E493FF12045F7515007516010202FB1273
:05037800037D0202FB01
:100278000202F8E493A3F8E493A34003F68001F2A2
:1002880008DFF48029E493A3F85407240CC8C33387
:10029800C4540F4420C8834004F456800146F6DF56
:1002A800E4800B01020408102040809004BFE47E23
:1002B800019360BCA3FF543F30E509541FFEE4934B
:1002C800A360010ECF54C025E060A840B8E493A312
:1002D800FAE493A3F8E493A3C8C582C8CAC583CA3D
:1002E800F0A3C8C582C8CAC583CADFE9DEE780BEF5
:0104CB000030
:1000F100BB010689828A83E0225002E722BBFE020D
:09010100E32289828A83E493223F
:10010A00BB010CE58229F582E5833AF583E02250AA
:10011A0006E92582F8E622BBFE06E92582F8E222F4
:0D012A00E58229F582E5833AF583E493220E
:10013700C2D5EC30E709B2D5E4C39DFDE49CFCEEE3
:1001470030E715B2D5E4C39FFFE49EFE12016DC3ED
:10015700E49DFDE49CFC800312016D30D507C3E4E8
:060167009FFFE49EFE2252
:10016D00BC000BBE0029EF8DF084FFADF022E4CC76
:10017D00F875F008EF2FFFEE33FEEC33FCEE9DEC3F
:10018D00984005FCEE9DFE0FD5F0E9E4CEFD22ED85
:10019D00F8F5F0EE8420D21CFEADF075F008EF2FCF
:1001AD00FFED33FD4007985006D5F0F222C398FDC0
:0501BD000FD5F0EA225D
:00000001FF
