:030000000200B04B
:0C00B000787FE4F6D8FD75810902007F1E
:100092003F065B4F666D7D077F6F777C395E7971B6
:0100A200005D
:10007F00C2A2C2A3C2A4120003E50890009293F596
:03008F008080F37B
:10000300E4F50975900FE590640F606F1200A3E5A6
:1000130090640F606675900FAF90EF24F560102425
:10002300FE601114601324077012E4F508800D7547
:100033000801800875080280037508037590F0AF06
:1000430090EF2450601124E0601124F060112470BB
:100053007013850808800E74048006740880027487
:100063000C2508F508C3E509648094B2500DE590AA
:0B00730064F060071200A3050980EA9A
:01007E00225F
:0C00A3007F017E267D82DDFEDEFADFF6A6
:0100AF00222E
:00000001FF
