:03000000020BAA46
:0C0BAA00787FE4F6D8FD758120020BF185
:100FD9000A750A0A6C73720A0A640A0A0A0A0A0A70
:010FE9000AFD
:100F71000117000116004800800000000000000079
:0E0F810000011900011800C181011300C18098
:100D6400E4F508F509F50A7590FFF5A0F580D2AF12
:100D7400C2B5C2B4C2B6120FAE120F1E120CA5EF4A
:100D84003395E0FE74D92FF582740F3EF583E49316
:100D9400F509650A601AE509640A601430010B75E7
:100DA4000973120F1E120FC480062001038509184F
:050DB40085090A80C75B
:100C3600E4F510120F90120F49900000E0FFC394E4
:100C4600024010EFD39405500AA3E0FF601FB407DB
:100C560002801A900001E0FFC394024013EFD39480
:100C660005500D900000E0FF6003B40703020FEA91
:100C7600E4F510E510C395195024E51075F002A4AB
:100C86002400F9740035F0FA7B0178117C007D00B0
:0E0C96007E007F02120A9B120EE6051080D52A
:010CA400222D
:10080000E4FFE51925E024FEF582E434FFF583E0FA
:10081000F50EE51925E024FFF582E434FFF583E0C9
:10082000F50FE518249C700302093C24F860652448
:10083000F770030208E92403600302098EE5191426
:10084000FFEFD39400403BEF25E024FEF582E43433
:10085000FFF583E0FEEF25E02400F582E43400F5A7
:1008600083EEF0EF25E024FFF582E434FFF583E02A
:10087000FEEF25E02401F582E43400F583EEF01F5D
:1008800080BF900000E004F0E06408600302098E7D
:10089000F002098EE51914FFEFD39400403BEF25D9
:1008A000E024FEF582E434FFF583E0FEEF25E0244A
:1008B00000F582E43400F583EEF0EF25E024FFF547
:1008C00082E434FFF583E0FEEF25E02401F582E4C5
:1008D0003400F583EEF01F80BF900000E014F0E0DC
:1008E000F4600302098E02098BE51914FFEFD3941B
:1008F00000403BEF25E024FEF582E434FFF583E081
:10090000FEEF25E02400F582E43400F583EEF0EFFD
:1009100025E024FFF582E434FFF583E0FEEF25E0D7
:100920002401F582E43400F583EEF01F80BF9000CF
:1009300001E004F0E064087055F08052E51914FFFE
:10094000EFD39400403BEF25E024FEF582E434FF32
:10095000F583E0FEEF25E02400F582E43400F58322
:10096000EEF0EF25E024FFF582E434FFF583E0FEAE
:10097000EF25E02401F582E43400F583EEF01F80DA
:10098000BF900001E014F0E0B4FF037407F09000A2
:1009900000E0B5142AA3E0B51525E51925E02400EB
:1009A000F582E43400F583E50EF0E51925E0240135
:1009B000F582E43400F583E50FF00519120D0712F6
:0B09C0000EA3EF6003120FEA020C36DA
:100EA300E4FFFE0EEEC395195038EE25E02400F55D
:100EB30082E43400F583E0FD900000E0B50519EE0F
:100EC30025E02401F582E43400F583E0FD90000180
:100ED300E0B505047D0180027D00AF05EF70030ED0
:020EE30080C2CB
:010EE50022EA
:0C0F49000513E51375F00184E5F0701B42
:100F5500B20030001378117C00FDFB7A007914FE95
:0B0F65007F02120A9B020EE6120F90A2
:010F7000225E
:100D0700751001E4FF120E0B7C007D06120AC1ED7F
:100D170004F514120E0B7C007D06120AC1ED04F5D2
:100D270015E4FFEFC39519502FEF25E02400F58256
:100D3700E43400F583E0B51414EF25E02401F582CF
:100D4700E43400F583E0B515047E0180027E008E51
:0C0D570010E51070030F80CBE51070A9B0
:010D6300226D
:100F9000900080743CF0E4A3F07F049000827481A0
:0D0FA000F0A3DFFCE4900086F0A3743CF0A9
:010FAD002221
:100EE600AE12EEFDC374079DFDE49400FC74802DE4
:100EF600F58274003CF583E0FBC374079511FFF897
:100F06007401088002C333D8FC4BFF74802DF58230
:070F160074003CF583EFF0CD
:010F1D0022B1
:100CA500E4FE7590EFC4F8540FC868FFEEC454F025
:100CB50048FEE590540FFDEF4D7590DFC4F8540FD5
:100CC500C868FFEEC454F048FEE590540FFDEF4DA3
:100CD5007590BFC4F8540FC868FFEEC454F048FEC1
:100CE500E590540FFDEF4D75907FC4F8540FC8681B
:100CF500FFEEC454F048FEE590540FFDEF4DFF02A2
:020D05000B16CB
:100B1600750B10EF2481602F24C0603024E0603113
:100B260024F0603224F4601024FE60111460132453
:100B3600077028E4F50B8069750B018064750B025C
:100B4600805F750B03805A750B048055750B058005
:100B560050750B06804B750B078046EE2481602F7F
:100B660024C0603024E0603124F0603224F4601048
:100B760024FE601114601324077026750B0880216B
:100B8600750B09801C750B0A8017750B0B80127587
:100B96000B0C800D750B0D8008750B0E8003750B05
:030BA6000FAF0B83
:010BA9002229
:03000B00020E588A
:100E5800C0E0C0F0C083C082C0D075D000C000C060
:100E680001C002C003C004C005C006C007758A00DF
:100E7800758C040516E516B40A06751600120800E6
:100E8800D007D006D005D004D003D002D001D000BE
:0B0E9800D0D0D082D083D0F0D0E03268
:100F1E007519037514057515059000047403F0A377
:100F2E00F090000204F0A314F09000007405F0A3FA
:0B0F3E007403F0751872D201020C362B
:100FC4005389F0438901E4F58A758C04C28DD28C6F
:050FD400D2A9C20122B8
:050FEA00C28CD20122BF
:03002B00020DB90A
:100DB900C0E0C083C082C0D075D000C006C007C2E1
:100DC900CFE5177003D38001C392B4D2B6C37407B9
:100DD9009517FFE49400FE74802FF58274003EF5A8
:100DE90083E0F4F580D2B50517E517B40803751744
:100DF90000C2B6C2B5D007D006D0D0D082D083D039
:020E0900E032D5
:100FAE00E4F5C9F5C875CCCD75CDF875CACD75CB40
:060FBE00F8D2CAD2AD22F8
:100BB600020D64E493A3F8E493A34003F68001F2E4
:100BC60008DFF48029E493A3F85407240CC8C33340
:100BD600C4540F4420C8834004F456800146F6DF0F
:100BE600E4800B0102040810204080900F71E47E1F
:100BF600019360BCA3FF543F30E509541FFEE49304
:100C0600A360010ECF54C025E060A840B8E493A3CA
:100C1600FAE493A3F8E493A3C8C582C8CAC583CAF5
:100C2600F0A3C8C582C8CAC583CADFE9DEE780BEAD
:010F8F000061
:1009CB00E709F608DFFA8046E709F208DFFA803E0E
:1009DB0088828C83E709F0A3DFFA8032E309F608FB
:1009EB00DFFA8078E309F208DFFA807088828C8363
:1009FB00E309F0A3DFFA806489828A83E0A3F60817
:100A0B00DFFA805889828A83E0A3F208DFFA804CF0
:100A1B0080D280FA80C680D4806980F280338010C7
:100A2B0080A680EA809A80A880DA80E280CA803330
:100A3B0089828A83ECFAE493A3C8C582C8CCC583A8
:100A4B00CCF0A3C8C582C8CCC583CCDFE9DEE78078
:100A5B000D89828A83E493A3F608DFF9ECFAA9F0F7
:100A6B00EDFB2289828A83ECFAE0A3C8C582C8CC4D
:100A7B00C583CCF0A3C8C582C8CCC583CCDFEADE66
:100A8B00E880DB89828A83E493A3F208DFF980CCC8
:100A9B0088F0EF60010E4E60C388F0ED2402B404C1
:100AAB000050B9F582EB2402B4040050AF23234568
:060ABB008223900A1B7368
:100AC100BC000BBE0029EF8DF084FFADF022E4CC19
:100AD100F875F008EF2FFFEE33FEEC33FCEE9DECE2
:100AE100984005FCEE9DFE0FD5F0E9E4CEFD22ED28
:100AF100F8F5F0EE8420D21CFEADF075F008EF2F72
:100B0100FFED33FD4007985006D5F0F222C398FD62
:050B11000FD5F0EA22FF
:100E0B00AC1AAD1BAE1CAF1D7810EC4D4E4F7004E1
:100E1B007CA57DA5C3EC13FCED13FDEE13FEEF13C8
:100E2B00FF5010EC64CCFCED644CFDEE644EFEEF19
:100E3B0064CEFFD8DF8C1A8D1B8E1C8F1DEE547F5A
:0D0E4B00FE228E1A8F1B74A5F51CF51D22CA
:00000001FF
