:0300000002018E6C
:0C018E00787FE4F6D8FD7581160201228E
:10016D003F065B4F666D7D077F6F777C395E7971DA
:01017D000081
:1001220012017EE4F50912000EE509B401F8851109
:1001320012851011850F10850E0F850D0E850C0D81
:10014200850B0CE50890016D93F50BE4F50980D65B
:10017E00758902758C9C758A9CD2A9D2AFD28C22BD
:1000B600E4F580E515B40800504D9000C7F82828EF
:1000C600730200DF0200E30200EB0200EF0200F71A
:1000D6000200FB020103020107C2A28002D2A2C2F1
:1000E600A3C2A48022C2A28002D2A2D2A3C2A480AA
:1000F60016C2A28002D2A2C2A3D2A4800AC2A28041
:1001060002D2A2D2A3D2A4740B2515F8E6F5800577
:0B01160015E515D394074003E4F51530
:0101210022BB
:10000E00E4F513F51475900FE590640F700302007C
:10001E00B512019A0514E51470020513E4F513F5F3
:10002E0014E590640F70030200B5C2A9750901753D
:10003E00900FAF90EF24F5601024FE601114601342
:10004E0024077012E4F508800D7508018008750804
:10005E000280037508037590F012019AAF90EF2499
:10006E0050601124E0601124F0601124707013852B
:10007E000808800E7404800674088002740C25082B
:10008E00F508D2A9C3E5149488E51394135013E52B
:10009E009064F0600D12019A0514E51470E60513D4
:0700AE0080E2E4F513F514F4
:0100B5002228
:08019A007F017E16DEFEDFFA94
:0101A200223A
:03000B000201529D
:10015200C0E0C083C082C0D075D000C0001200B61B
:0B016200D000D0D0D082D083D0E0329B
:00000001FF
