:100F3900012401011B01011A000E263F065B4F66C1
:100F49006D7D077F6F00014008081C00000000004C
:100F5900000000010905010818011900010A010131
:050F6900340101250028
:100FA100EB1392B4D2B6AF247E00120FB2C2B6AF29
:010FB100241B
:100FB200E4FDFCC3ED9FEC9E50070DBD00010C80CB
:010FC200F23C
:010FC300220B
:040FC400AB07AA06C7
:100FC800E4F583F5827C007D0CAF03AE02120A4182
:0C0FD800C3E5829FE5839E5003A380E9DF
:010FE40022EA
:100DA200AB35AA36A937120AD3FBAAF07C007D0A1A
:100DB200FFAE02120A537C007D0A120A538C3A8D4E
:100DC2003B7C007D0AAF03AE02120A538C838D82F4
:100DD200E53BC4F8540FC868FFE53AC454F048FE36
:0E0DE200EF2582F53DEE3583F53CE4FD7F8E76
:040DF000AB05A9079F
:100DF400E4FAAF1BFE120FB2C2B5120FAED2B5AFFA
:100E040024120FB20AE9120FA2E9C313F90ABA09AC
:100E1400F47A01120FA1EBC313FB0ABA09F5C2B5A8
:010E240022AB
:020E2500AB0719
:100E2700E4F9F544AF1BFE120FB2C2B5120FAED2F2
:100E3700B5AF24120FB27A01120FA1EBC313FB0A4D
:100E4700BA08F5EB1392B4D2B6AF247E00120FB2F4
:100E5700E4FAC2B6AF1A7E00120FB2A2B4E433F5B9
:100E6700445401FFA802088002C333D8FC4201C3DF
:100E7700E524951AFFE49400FE120FB2D2B6AF2410
:0D0E87007E00120FB20ABA08C9C2B5AF0151
:010E9400223B
:07102400C2B4C2B6C2B5223E
:080800007B007A00790B7C00FB
:0A0808008B358A3689378C388D391C
:10081200E53930E049120DEC7F81120E25753E005C
:100822008F3FE53F5470FFE4C4F854F0C868FEEF10
:10083200C4540F48FF7C007D0A120A418E3A8F3B56
:10084200753C00E53F540FF53D253BFFE53C353A4D
:10085200AB35AA36A93790000C8FF0120B0BE53995
:1008620030E149120DEC7F83120E25753E008F3F59
:10087200E53F5470FFE4C4F854F0C868FEEFC45476
:100882000F48FF7C007D0A120A418E3A8F3B753C6D
:1008920000E53F540FF53D253BFFE53A353CAB35CE
:1008A200AA36A93790000A8FF0120B0BE53920E225
:1008B20003020956120DEC7F85120E25753E008F3C
:1008C2003FE53F54806401704FE53F5410FFE4C49C
:1008D200F854F0C868FEEFC4540F48FF7C007D0A4C
:1008E200120A418E3A8F3B753C00E53F540FF53DAD
:1008F2007E00E53F54207805CEC313CE13D8F9FF0E
:10090200E53B253DFBE53A353CFA7C007D0C120ABD
:0809120041EF2BFFEE3A802EAD
:10091A00E53F5430FFE4C4F854F0C868FEEFC4540D
:10092A000F48FF7C007D0A120A418E408F417542B2
:10093A0000E53F540FF5432541FFE5403542AB350D
:0C094A00AA36A9379000088FF0120B0BA2
:10095600E53930E449120DEC7F87120E25753E000D
:100966008F3FE53F5430FFE4C4F854F0C868FEEF0B
:10097600C4540F48FF7C007D0A120A418E3A8F3B11
:10098600753C00E53F540FF53D253BFFE53A353C08
:10099600AB35AA36A9379000028FF0120B0BE5395A
:1009A60030E549120DEC7F89120E25753E008F3F0A
:1009B600E53F5410FFE4C4F854F0C868FEEFC45491
:1009C6000F48FF7C007D0A120A418E3A8F3B753C28
:1009D60000E53F540FF53D253BFFE53A353CAB3589
:1009E600AA36A9379000048FF0120B0BE53930E6D2
:1009F60049120DEC7F87120E25753E008F3FE53FAD
:100A060054F0FFE4C4F854F0C868FEEFC4540F482D
:100A1600FF7C007D0A120A418E3A8F3B753C00E549
:100A26003F540FF53D253BFFE53A353CAB35AA363D
:0A0A3600A9379000068FF0120B0B99
:010A40002293
:0A0B38008B358A3689378C388D39E9
:100B4200E4F53AF53BF582F583F53CF53DE53930C0
:100B5200E00D90000C120DA8AD3D7F80120DF0E566
:100B62003930E10D90000A120DA2AD3D7F82120DC7
:100B7200F0E53930E20D900008120DA2AD3D7F8400
:100B8200120DF0E53930E313AB35AA36A9379000E0
:100B920002120DA8AD3D7F86120DF0E53930E41347
:100BA200AB35AA36A937900004120DA8AD3D7F8857
:100BB200120DF0E53930E513AB35AA36A9379000AE
:100BC20006120DA8AD3D7F9C120DF0E53930E61FEF
:100BD200AB35AA36A937120AA8FFAEF07C007D0A0F
:0F0BE200120A538D82120DECAD827F9A120DF024
:010BF10022E1
:03102B000210248C
:100FE5008F08EF75F008A4FFAEF07C037DE8CFCD48
:0A0FF500CFCECCCE120A538F092292
:100E9500EE705FEF14B408005058900EAD75F00376
:100EA500A4C58325F0C58373020EEE020EE8020E7B
:100EB500E2020EDE020ED5020ECF020EC9020EC5EB
:100EC500D2A28002C2A2D2A3800AD2A2C2A3800467
:100ED500C2A2C2A3D2A48D8022D2A28002C2A2D273
:100EE500A3800AD2A2C2A38004C2A2C2A3C2A48DB7
:060EF5008022E4F58022DA
:100F6F00E4FBFAEB2401FFE43AFE741C2BF8E6FDD8
:100F7F007C00120E95E4FEFF0FBF00010EEF64B46C
:100F8F004E70F50BBB00010AEB64084A70D5E4F50F
:010F9F0080D1
:010FA000222E
:100BF2007D07120800AE13AF147C007D0A120A535F
:100C02007C007D0A120A5374262DF8E6F523AE13F2
:100C1200AF147C007D0A120A5374262DF8E6F522E1
:100C2200752140AE15AF167C007D0A120A537C0076
:100C32007D0A120A5374262DF8E6F520AE15AF167A
:100C42007C007D0A120A5374262DF8E6F51F751EE4
:100C520040AE17AF187C007D0A120A537C007D0A51
:100C6200120A5374262DF8E6F51DAE17AF187C0054
:100C72007D0A120A5374262DF8E6F51C7519010235
:020C82000F6FF2
:100C84007D38120800AE11AF127C007D0A120A539F
:100C94007C007D0A120A5374262DF8E6F523AE1162
:100CA400AF127C007D0A120A5374262DF8E6F52251
:100CB400752140AE0FAF107C007D0A120A537C00F0
:100CC4007D0A120A5374262DF8E6F520AE0FAF10F4
:100CD4007C007D0A120A5374262DF8E6F51F751E52
:100CE40040AE0DAF0E7C007D0A120A537C007D0AD3
:100CF400120A5374262DF8E6F51DAE0DAF0E7C00D6
:100D04007D0A120A5374262DF8E6F51C75190102A2
:020D14000F6F5F
:0E100E00E50A6006147006020BF2120C842232
:100EFB00D2AFD2A8D28812102BE4F517F518F5153E
:100F0B0075160BF513751410F50B750C01F50D75A6
:100F1B000E18F50F75100AF511751207FB7A00798B
:0E0F2B000B7D7FFC120B387F307E00020FE53D
:03000300020FFFEA
:0F0FFF00C0E0E50A045401F50A751900D0E0328C
:08101C00120EFB12100E80FB06
:03000000020D16D8
:0C0D1600787FE4F6D8FD758144020D5D85
:100A4100EF8DF0A4A8F0CF8CF0A428CE8DF0A42EC9
:020A5100FE2283
:100A5300BC000BBE0029EF8DF084FFADF022E4CC87
:100A6300F875F008EF2FFFEE33FEEC33FCEE9DEC50
:100A7300984005FCEE9DFE0FD5F0E9E4CEFD22ED96
:100A8300F8F5F0EE8420D21CFEADF075F008EF2FE0
:100A9300FFED33FD4007985006D5F0F222C398FDD1
:050AA3000FD5F0EA226E
:100AA800BB010A89828A83E0F5F0A3E02250068719
:100AB800F009E71922BBFE07E3F5F009E3192289DB
:0B0AC800828A83E493F5F0740193220E
:100AD300BB0110E58229F582E5833AF583E0F5F061
:100AE300A3E0225009E92582F886F008E622BBFE3E
:100AF3000AE92582F8E2F5F008E222E5832AF58384
:080B0300E993F5F0A3E9932248
:100B0B00F8BB0111E58229F582E5833AF583E8F01C
:100B1B00E5F0A3F0225009E92582C8F608A6F022D9
:0D0B2B00BBFE09E92582C8F2E5F008F222C0
:100D220002101CE493A3F8E493A34003F68001F2BB
:100D320008DFF48029E493A3F85407240CC8C333D2
:100D4200C4540F4420C8834004F456800146F6DFA1
:100D5200E4800B0102040810204080900F39E47EE9
:100D6200019360BCA3FF543F30E509541FFEE49396
:100D7200A360010ECF54C025E060A840B8E493A35D
:100D8200FAE493A3F8E493A3C8C582C8CAC583CA88
:100D9200F0A3C8C582C8CAC583CADFE9DEE780BE40
:010F6E000082
:00000001FF
