:030000000200F00B
:0C00F000787FE4F6D8FD75810B02000358
:1000E000F1F3F2F6F4FCF8F9F9F8FCF4F6F2F3F1B6
:1000030075091E20B01D1200BE20B003750801E55E
:100013000AC394C8500A20B0071200BE050A80EF35
:10002300E4F50A20B11D1200BE20B103750802E5F4
:100033000AC394C8500A20B1071200BE050A80EF14
:10004300E4F50A20B21D1200BE20B20375090DE5C6
:100053000AC394C8500A20B2071200BE050A80EFF3
:10006300E4F50A20B31D1200BE20B303750928E589
:100073000AC394C8500A20B3071200BE050A80EFD2
:09008300E4F50A12008C020006EB
:10008C00E4F50BE508B4010AE50B9000E093541F6E
:10009C00F590E508B4020AE50B9000E893541FF5BF
:1000AC0090AF097E001200C2050BE50BC39408400B
:0100BC00D271
:0100BD002220
:0400BE007F017E0040
:1000C200EF1FAA0670011E4A6013E4FCFDC3ED9403
:0D00D20050EC940050EA0DBD00010C80F0D0
:0100DF0022FE
:00000001FF
