:1001E0003F065B4F666D7D077F6F777C395E797167
:0101F000000E
:10000300E51364324512700DF512F5137FA4120146
:10001300C78E108F110513E513700205129001E0CE
:10002300E493F50FF50EF50DF50CAE10AF117C272B
:100033007D101201327E037FE8CFCDCFCECCCE121E
:10004300013274E02FF58274013EF583E493F50BDE
:10005300AE10AF117C037DE81201327E007F64CFC6
:10006300CDCFCECCCE12013274E02FF58274013E97
:10007300F583E493F50AAE10AF117C007D641201A1
:10008300327E007F0ACFCDCFCECCCE12013274E0C8
:100093002FF58274013EF583E493F509AE10AF1199
:1000A3007C007D0A12013274E02DF58274013CF567
:0B00B30083E493F5081200BE02000376
:1000BE00E4FFEFB40800504D9000CDF828287302ED
:1000CE0000E50200E90200F10200F50200FD020166
:1000DE000102010902010DC2A28002D2A2C2A3C274
:1000EE00A48022C2A28002D2A2D2A3C2A48016C22F
:1000FE00A28002D2A2C2A3D2A4800AC2A28002D23D
:10010E00A2D2A3D2A474082FF8E6F5807D327C002B
:10011E00ED1DAA0470011C4A70F6E4F5800FEF6421
:03012E0008708FC7
:0101310022AB
:0B01FD00C2B6D2B5D2B4D2B6C2B52251
:1001AB00C2B6E4FEEFC4131313540124FF92B4EF51
:0B01BB0025E0FFC2B6D2B60EBE08E978
:0101C6002216
:10018700E4FFFEC2B6FDFCEF25E0FFEE33FED2B67C
:10019700C2B6A2B7E43342070DBD00010CED640CF3
:0301A7004C70E4B5
:0101AA002232
:1001C700C2B6C2B51201AB7F06DFFED2B60000C2CF
:0801D700B60000120187D2B549
:0101DF0022FD
:030000000201F109
:0C01F100787FE4F6D8FD7581130200034E
:10013200BC000BBE0029EF8DF084FFADF022E4CCB1
:10014200F875F008EF2FFFEE33FEEC33FCEE9DEC7A
:10015200984005FCEE9DFE0FD5F0E9E4CEFD22EDC0
:10016200F8F5F0EE8420D21CFEADF075F008EF2F0A
:10017200FFED33FD4007985006D5F0F222C398FDFB
:050182000FD5F0EA2298
:00000001FF
