:100B66003F065B4F666D7D077F6F777C395E7971D7
:010B7600007E
:100AD300010800040D00000000041C0000000004D5
:0B0AE3000900000000011B00011200D0
:100A9500E4FDFCC3ED9FEC9E5015E4FBFA0BBB0097
:0F0AA500010AEB64784A70F50DBD00010C80E486
:010AB400221F
:1008000075200075210575A0FF120B54D2AF7FA48F
:10081000120B0BC3EF9496EE94005004C2A7800213
:10082000D2A7E4FFFEFDFCAB1FAA1EA91DA81CC396
:10083000120A716068AF1FAE1EAD1DAC1CAB0CAAD6
:100840000BA90AA809C3120A716052AF1F120AB598
:100850008F08E508B40102B2A0E5086402703EF515
:1008600020752106D2A2D2A3D2A474662521F582D6
:10087000740B3520F583E493F5807FE87E03120A3C
:1008800095E52145207007AF08120B3C800FE5214C
:10089000152170021520C3E520940050C7851F0C58
:0C08A000851E0B851D0A851C0902080E30
:1009D700E4FFEFC39400506DEFB40800504D900949
:1009E700ECF8282873020A04020A08020A10020A0D
:1009F70014020A1C020A20020A28020A2CC2A28038
:100A070002D2A2C2A3C2A48022C2A28002D2A2D2D0
:100A1700A3C2A48016C2A28002D2A2C2A3D2A4807B
:100A27000AC2A28002D2A2D2A3D2A474132FF8E6DC
:100A3700F5807D327C00ED1DAA0470011C4A70F61A
:050A4700F5800F808D19
:010A4C002287
:100AB500EF247B6010249E60082418700C7E018052
:0D0AC5000A7E0280067E038002E4FEAF067A
:010AD2002201
:03000B00020B24C1
:100B2400C0E0C0D0E51BC394325002051B758CFC99
:080B3400758A18D0D0D0E03220
:030003000208AC44
:1008AC00C0E0C0D075D000C000C001C004C005C0FD
:1008BC0006C007851B11751B00758CFC758A180505
:1008CC0012E511C3943240117512FE751000750FAC
:1008DC0000750E00750D008055C3E5126480948080
:1008EC004034E512648094A0502CE511C39402406E
:1008FC003DE47F01FEFDFC741F9512F9F8120A828B
:10090C00E5104FF510E50F4EF50FE50E4DF50EE524
:10091C000D4CF50D8018C3E512648094A0400F8532
:10092C00101F850F1E850E1D850D1C751200D0071E
:0F093C00D006D005D004D001D000D0D0D0E0320A
:100B5400438901758CFC758A18D28CD2A9D288D2AB
:020B6400A822C5
:100B3C00EF24FE600B14600C2402700B63A00122E6
:080B4C0063A0022263A0042251
:0B0B7700C2B6D2B5D2B4D2B6C2B522CD
:100AEF00C2B6E4FEEFC4131313540124FF92B4EF04
:0B0AFF0025E0FFC2B6D2B60EBE08E92B
:010B0A0022C8
:100A4D00E4FFFEC2B6FDFCEF25E0FFEE33FED2B6AD
:100A5D00C2B6A2B7E43342070DBD00010CED640C24
:030A6D004C70E4E6
:010A70002263
:100B0B00C2B6C2B5120AEF7F06DFFED2B60000C234
:080B1B00B60000120A4DD2B52C
:010B230022AF
:0300000002094BA7
:0C094B00787FE4F6D8FD7581290209923E
:100A7100EB9FF5F0EA9E42F0E99D42F0E89C45F0DB
:010A81002252
:100A8200E8600FEFC333FFEE33FEED33FDEC33FCD2
:030A9200D8F12276
:10095700020800E493A3F8E493A34003F68001F2AE
:1009670008DFF48029E493A3F85407240CC8C333A1
:10097700C4540F4420C8834004F456800146F6DF70
:10098700E4800B0102040810204080900AD3E47E23
:10099700019360BCA3FF543F30E509541FFEE49365
:1009A700A360010ECF54C025E060A840B8E493A32C
:1009B700FAE493A3F8E493A3C8C582C8CAC583CA57
:1009C700F0A3C8C582C8CAC583CADFE9DEE780BE0F
:010AEE000007
:00000001FF
