:0300000002058670
:0C058600787FE4F6D8FD7581230205CDD6
:0F07AB003F065B4F666D7D077F6F00000000000B
:100785000108001009003F003F003F003F003F0007
:050795003F003F003FA2
:0B07BA0012079B12076E12045A80F811
:04045A008E198F1A4E
:10045E00781B7C007D007BFF7A0779B57E007F05D7
:10046E0012039BC3E519648094805016750D0075B8
:10047E000E40E51A151A70021519631AFF6319FF5B
:10048E008005E4F50DF50EAC19AD1AEC1202118FC4
:10049E00238E228D218C20E4FFFE7DC87C40AB2371
:1004AE00AA22A921A820120106E4FBFAF9783F122C
:1004BE00001512024A8E198F1AE4F509F50AF50B8A
:1004CE00F50CAE19AF1A7C277D101203C174AB2F39
:1004DE00F58274073EF583E493750F00F510AE199F
:1004EE00AF1A7C277D101203C17E037FE8CFCDCFDC
:1004FE00CECCCE1203C174AB2FF58274073EF583BA
:10050E00E493751100F512AE19AF1A7C037DE81253
:10051E0003C17E007F64CFCDCFCECCCE1203C1748B
:10052E00AB2FF58274073EF583E493448075130078
:10053E00F514AE19AF1A7C007D641203C17E007FE4
:10054E000ACFCDCFCECCCE1203C174AB2FF58274B1
:10055E00073EF583E493751500F516AE19AF1A7CB8
:10056E00007D0A1203C174AB2DF58274073CF5832E
:07057E00E493751700F51866
:010585002253
:10079B00758902758C9C758A9CD2A9D2AFD28C229A
:03000B00020612D8
:10061200C0E0C083C082C0D075D000C00075800029
:10062200E508B40800504D900630F82828730206F9
:100632007002066C02066402066002065802065444
:1006420002064C020648C2A28002D2A2C2A3C2A4DF
:100652008022C2A28002D2A2D2A3C2A48016C2A2C7
:100662008002D2A2C2A3D2A4800AC2A28002D2A2D3
:10067200D2A3D2A4E50825E02409F808E6F580050E
:1006820008E508D394074003750800D000D0D0D005
:0606920082D083D0E032AB
:10075000D3EF9400EE940040147D6E7C00ED1D708C
:0D076000011CED4C70F7EF1F70E61E80E3EA
:01076D002269
:10072000C2AFC2B77F467E00EF1FAC0670011E4C01
:1007300070F6D2B7E4FEFFD2AF30B7110FBF0001A1
:0F0740000ED3EF9488EE941340EF7F00227F01D9
:01074F002287
:0C0698001207207F017E001207507FCC6B
:1006A400C2AFE4FBFAC2B7051BE51B7002051AEFE3
:1006B4001392B7751A00751B06E51B151BAC1A704F
:1006C40002151A4C70F3D2B7EFC313FF0BBB000132
:0906D4000AEB64084A70CED2AFB3
:0106DD0022FA
:1006DE00C2AF7D087C00C2B70FBF0000D2B70FBFFC
:1006EE0000000FBF0000A2B7E433C433333354808D
:1006FE00FBE9C3134BF97E007F04EF1FAA067001BE
:10070E001E4A70F6ED1D70011CED4C70C9D2AFAFD4
:01071E0001D9
:01071F0022B7
:080003001206987F440206A4D6
:0807C5001206987FBE0206A493
:10076E00E4FFFE1200031207C51206DE8F191206F1
:06077E00DEEFFEE519FFAD
:010784002252
:10000E000202B6E86480F8E933E83360110460F068
:10001E00ED33EC337009E8FCE9FDEAFEEBFF220458
:10002E0060DED3EB9FEA9EE99DE8C2E78CF0C2F753
:10003E0095F0400CE8CCF8E9CDF9EACEFAEBCFFB1F
:10004E0012028185D0F05804700320D5B3E80470F5
:10005E00075002B2D50202C092D5EC0460F7E4CC90
:10006E00C0E0C398F8603B94186008400DD0E0FBE8
:10007E00020298E4FBFAC9FC8028E830E406E4C9E1
:10008E00FBE4CAFCE830E305E4C9CACBFCE854073C
:10009E006010F8C3E913F9EA13FAEB13FBEC13FC47
:1000AE00D8F130F52FC3E49CFCEF9BFFEE9AFEEDEA
:1000BE0099FDD0E0FBEF4E4D4C701222DB03020295
:1000CE00BDEC2CFCEF33FFEE33FEED33FDED30E7F0
:1000DE00EB020298EF2BFFEE3AFEED39FDD0E0FB7E
:1000EE0050130BBB00030202C0ED13FDEE13FEEF27
:0800FE0013FFEC13FC02029851
:10010600EC4D6011E8497017ED33EC3304600DE4F3
:10011600FCFFFEFD22E933E8330470F80202B61252
:10012600028158046009E4CC248150062850090253
:1001360002C02840030202BDC0E0EB4A7044B98009
:1001460006D0E0FB0202ACEF4E701CBD8008EBFF50
:10015600EAFEE9FD80EBE98DF0A4FEE5F00201EF91
:10016600E9CDF9EAFEEBFFEF89F0A4FCE5F0CE89D4
:10017600F0A42EFFE435F0CD89F0A42DFEE435F091
:100186008067EF4E7005BD80D780C3EF8BF0A4ACBF
:10019600F0EE8BF0A42CFCE435F0F8EF8AF0A42CFA
:1001A600E5F038FCE433CB8DF0A42CFCE5F03BF80D
:1001B600EE8AF0A42CFCE5F038F8E433CF89F0A4FD
:1001C6002CFCE5F038CF3400CE89F0A42FFFE5F003
:1001D6003EFEE433C98DF0A42EFEE5F039CD8AF05B
:1001E600A42FFFE5F03EFEE43DFD33D0E0FB5007D3
:1001F6000BBB000F0202C0EC2CFCEF33FFEE33FE0C
:06020600ED33FD02029839
:10020C0075F020800E75F010800575F0087D007E6D
:10021C00007F003392D530D5031203F7EC33401036
:10022C00EF33FFEE33FEED33FDEC33FCD5F0ED2276
:0E023C00E5F0247EA2D513CC92E7CDCEFF22B2
:10024A00EDD2E7CD33EC3392D524814006E4FFFEAC
:10025A00FDFC22FCE4CFCECDCC24E0501174FF800B
:10026A00EDC3CC13CCCD13CDCE13CECF13CF0470A8
:07027A00F030D5DE0203F7AE
:10028100E9D2E7C933E833F892D5EDD2E7CD33ECC3
:0702910033FC5002B2D5223C
:10029800EC30E7100FBF000C0EBE00080DBD0004C7
:1002A8000BEB6014A2D5EB13FCED92E7FD2274FF73
:1002B800FCFDFEFF22E480F8A2D574FF13FC7D80CC
:0302C800E480EFE0
:100592000207BAE493A3F8E493A34003F68001F2BE
:1005A20008DFF48029E493A3F85407240CC8C3336A
:1005B200C4540F4420C8834004F456800146F6DF39
:1005C200E4800B0102040810204080900785E47E3D
:1005D200019360BCA3FF543F30E509541FFEE4932E
:1005E200A360010ECF54C025E060A840B8E493A3F5
:1005F200FAE493A3F8E493A3C8C582C8CAC583CA20
:10060200F0A3C8C582C8CAC583CADFE9DEE780BED7
:01079A00005E
:1002CB00E709F608DFFA8046E709F208DFFA803E15
:1002DB0088828C83E709F0A3DFFA8032E309F60802
:1002EB00DFFA8078E309F208DFFA807088828C836A
:1002FB00E309F0A3DFFA806489828A83E0A3F6081E
:10030B00DFFA805889828A83E0A3F208DFFA804CF7
:10031B0080D280FA80C680D4806980F280338010CE
:10032B0080A680EA809A80A880DA80E280CA803337
:10033B0089828A83ECFAE493A3C8C582C8CCC583AF
:10034B00CCF0A3C8C582C8CCC583CCDFE9DEE7807F
:10035B000D89828A83E493A3F608DFF9ECFAA9F0FE
:10036B00EDFB2289828A83ECFAE0A3C8C582C8CC54
:10037B00C583CCF0A3C8C582C8CCC583CCDFEADE6D
:10038B00E880DB89828A83E493A3F208DFF980CCCF
:10039B0088F0EF60010E4E60C388F0ED2402B404C8
:1003AB000050B9F582EB2402B4040050AF2323456F
:0603BB00822390031B7376
:1003C100C2D5EC30E709B2D5E4C39DFDE49CFCEE57
:1003D10030E715B2D5E4C39FFFE49EFE120405C3C6
:1003E100E49DFDE49CFC800312040530D507C3E4C1
:0603F1009FFFE49EFE22C6
:0E03F700C3E49FFFE49EFEE49DFDE49CFC2217
:10040500BC000BBE0029EF8DF084FFADF022E4CCDB
:10041500F875F008EF2FFFEE33FEEC33FCEE9DECA4
:10042500984005FCEE9DFE0FD5F0E9E4CEFD22EDEA
:10043500F8F5F0EE8420D21CFEADF075F008EF2F34
:10044500FFED33FD4007985006D5F0F222C398FD25
:050455000FD5F0EA22C2
:00000001FF
