:100A1200010800040D00000000041C000000000496
:0B0A22000900000000011B0001120091
:1009D400E4FDFCC3ED9FEC9E5015E4FBFA0BBB0059
:0F09E400010AEB64784A70F50DBD00010C80E448
:0109F30022E1
:10092B0075220075230575A0FF120A7BD2AFE4FF79
:10093B00FEFDFCAB1FAA1EA91DA81CC31209B060AB
:10094B00EDAF1FAE1EAD1DAC1CAB0CAA0BA90AA8BC
:10095B0009C31209B060D7AF1F1209F48F08E5085D
:10096B00B40102B2A0E508B40202B2A1E508B403D7
:10097B0002B2A2851F0C851E0B851D0A851C0980E2
:01098B00ADBE
:1009F400EF247B6010249E60082418700C7E018014
:0D0A04000A7E0280067E038002E4FEAF063B
:010A110022C2
:03000B00020A6383
:100A6300C0E0C0D0E51BC394325002051B758CFC5B
:080A7300758A18D0D0D0E032E2
:03000300020800F0
:10080000C0E0C0D075D000C000C001C004C005C0A9
:1008100006C007851B11751B00758CFC758A1805B1
:1008200012E511C3943240117512FE751000750F58
:1008300000750E00750D008055C3E512648094802C
:100840004034E512648094A0502CE511C39402401A
:100850003DE47F01FEFDFC741F9512F9F81209C1F9
:10086000E5104FF510E50F4EF50FE50E4DF50EE5D1
:100870000D4CF50D8018C3E512648094A0400F85DF
:10088000101F850F1E850E1D850D1C751200D007CB
:0F089000D006D005D004D001D000D0D0D0E032B7
:100A7B00438901758CFC758A18D28CD2A9D288D285
:020A8B00A8229F
:0B0A8D00C2B6D2B5D2B4D2B6C2B522B8
:100A2E00C2B6E4FEEFC4131313540124FF92B4EFC5
:0B0A3E0025E0FFC2B6D2B60EBE08E9EC
:010A4900228A
:10098C00E4FFFEC2B6FDFCEF25E0FFEE33FED2B66F
:10099C00C2B6A2B7E43342070DBD00010CED640CE6
:0309AC004C70E4A8
:0109AF002225
:100A4A00C2B6C2B5120A2E7F06DFFED2B60000C2B7
:080A5A00B6000012098CD2B5B0
:010A62002271
:0300000002089F54
:0C089F00787FE4F6D8FD75812B0208E696
:1009B000EB9FF5F0EA9E42F0E99D42F0E89C45F09D
:0109C0002214
:1009C100E8600FEFC333FFEE33FEED33FDEC33FC94
:0309D100D8F12238
:1008AB0002092BE493A3F8E493A34003F68001F22F
:1008BB0008DFF48029E493A3F85407240CC8C3334E
:1008CB00C4540F4420C8834004F456800146F6DF1D
:1008DB00E4800B0102040810204080900A12E47E91
:1008EB00019360BCA3FF543F30E509541FFEE49312
:1008FB00A360010ECF54C025E060A840B8E493A3D9
:10090B00FAE493A3F8E493A3C8C582C8CAC583CA03
:10091B00F0A3C8C582C8CAC583CADFE9DEE780BEBB
:010A2D0000C8
:00000001FF
