:0300000002020CED
:0C020C00787FE4F6D8FD758120020253D3
:0A0465003F065B4F666D7D077F6F59
:100415000108001009003F003F003F003F003F007A
:050425003F003F003F15
:10000E00E4F519F51AF51BF51C12042B20B131126B
:10001E00045820B107AD1A7F021203FCC3E51E94EB
:10002E00C8E51D9400501020B20D051EE51E70028D
:10003E00051D12045880E5E4F51DF51EF51DF51E8F
:10004E0020B03012045820B00A7F021203DA75195C
:10005E00008F1AC3E51E94C8E51D9400501020B2FF
:10006E000D051EE51E7002051D12045880E5E4F50F
:10007E001DF51E20B23B12045820B208051AE51ACF
:10008E0070020519C3E51E94C8E51D94005010209A
:10009E00B20D051EE51E7002051D12045880E5E422
:1000AE00F51DF51EB51A0AE519B40105E4F519F5A5
:1000BE001A20B32B12045820B305E4F519F51AC310
:1000CE00E51E94C8E51D9400501020B20D051EE5E6
:1000DE001E7002051D12045880E5E4F51DF51EAED6
:1000EE001BAF1C7C037DE812031E74652FF5827412
:1000FE00043EF583E493750900F50AAE1BAF1C7C34
:10010E00037DE812031EAA04AB057D647C00AF03D9
:10011E00AE0212031E74652FF58274043EF583E45D
:10012E0093750B00F50C7D647C00AF03AE021203D9
:10013E001EAA04AB057D0A7C00AF03AE0212031E9D
:10014E0074652FF58274043EF583E493750D00F506
:10015E000E7D0A7C00AF03AE0212031E74652DF5F0
:10016E008274043CF583E493750F00F510AE19AF5D
:10017E001A7C037DE812031E74652FF58274043E0B
:10018E00F583E493751100F512AE19AF1A7C037D59
:10019E00E812031EAA04AB057D647C00AF03AE0219
:1001AE0012031E74652FF58274043EF583E4937575
:1001BE001300F5147D647C00AF03AE0212031EAA79
:1001CE0004AB057D0A7C00AF03AE0212031E7465FC
:1001DE002FF58274043EF583E493751500F5167DB4
:1001EE000A7C00AF03AE0212031E74652DF58274F5
:0E01FE00043CF583E493751700F51802001A0F
:10042B00758902758C9C758A9CD2A9D2AFD28C220D
:0C0458007F017E8E7D02DDFEDEFADFF605
:010464002275
:1003FC008F1F8D2012043B7FA0120373AF1F1203BB
:09040C0073AF2012037302046FA8
:0203DA008F1F73
:1003DC0012043B7FA0120373AF1F12037312043B72
:0F03EC007FA11203731203B48F2012046FAF208E
:0103FB0022DF
:03000B0002029856
:10029800C0E0C083C082C0D075D000C000758000A7
:1002A800E508B40800504D9002B6F82828730202F9
:1002B800F60202F20202EA0202E60202DE0202DAB2
:1002C8000202D20202CEC2A28002D2A2C2A3C2A459
:1002D8008022C2A28002D2A2D2A3C2A48016C2A245
:1002E8008002D2A2C2A3D2A4800AC2A28002D2A251
:1002F800D2A3D2A4E50825E02409F808E6F580058C
:1003080008E508D394074003750800D000D0D0D082
:0603180082D083D0E03228
:05044A0012044FD2A1D5
:08044F007F017E02DEFEDFFAF0
:010457002282
:0F043B00D2A012044AC2A012044FC2A102044F61
:0A046F00C2A012044AD2A002044FFA
:02037300AD07D4
:10037500E4FBFAEDC4131313540124FF92A0ED25F9
:10038500E0FD12044AC2A112044F0BBB08E5D2A03E
:1003950012044FD2A130A00F0AEAD394C840F6C286
:0E03A500A112044F7F0022C2A112044F7F015B
:0103B3002227
:1003B400E4FDFCD2A012044FD2A112044FEC25E0BC
:1003C400FCA2A0E433420412044FC2A112044F0D54
:0503D400BD08E5AF04C7
:0103D9002201
:1002180002000EE493A3F8E493A34003F68001F2EE
:1002280008DFF48029E493A3F85407240CC8C333E7
:10023800C4540F4420C8834004F456800146F6DFB6
:10024800E4800B0102040810204080900415E47E2D
:10025800019360BCA3FF543F30E509541FFEE493AB
:10026800A360010ECF54C025E060A840B8E493A372
:10027800FAE493A3F8E493A3C8C582C8CAC583CA9D
:10028800F0A3C8C582C8CAC583CADFE9DEE780BE55
:01042A0000D1
:10031E00BC000BBE0029EF8DF084FFADF022E4CCC3
:10032E00F875F008EF2FFFEE33FEEC33FCEE9DEC8C
:10033E00984005FCEE9DFE0FD5F0E9E4CEFD22EDD2
:10034E00F8F5F0EE8420D21CFEADF075F008EF2F1C
:10035E00FFED33FD4007985006D5F0F222C398FD0D
:05036E000FD5F0EA22AA
:00000001FF
